{
    "_format": "hh-sol-artifact-1",
    "contractName": "DGReduxNFT",
    "sourceName": "contracts/NFTs/DGReduxNFT.sol",
    "abi": [
        {
            "inputs": [
                {
                    "internalType": "string",
                    "name": "_contractUri",
                    "type": "string"
                },
                {
                    "internalType": "string",
                    "name": "name",
                    "type": "string"
                },
                {
                    "internalType": "string",
                    "name": "symbol",
                    "type": "string"
                },
                {
                    "internalType": "uint96",
                    "name": "defaultRoyalty",
                    "type": "uint96"
                }
            ],
            "stateMutability": "nonpayable",
            "type": "constructor"
        },
        {
            "anonymous": false,
            "inputs": [
                {
                    "indexed": true,
                    "internalType": "address",
                    "name": "owner",
                    "type": "address"
                },
                {
                    "indexed": true,
                    "internalType": "address",
                    "name": "approved",
                    "type": "address"
                },
                {
                    "indexed": true,
                    "internalType": "uint256",
                    "name": "tokenId",
                    "type": "uint256"
                }
            ],
            "name": "Approval",
            "type": "event"
        },
        {
            "anonymous": false,
            "inputs": [
                {
                    "indexed": true,
                    "internalType": "address",
                    "name": "owner",
                    "type": "address"
                },
                {
                    "indexed": true,
                    "internalType": "address",
                    "name": "operator",
                    "type": "address"
                },
                {
                    "indexed": false,
                    "internalType": "bool",
                    "name": "approved",
                    "type": "bool"
                }
            ],
            "name": "ApprovalForAll",
            "type": "event"
        },
        {
            "anonymous": false,
            "inputs": [
                {
                    "indexed": false,
                    "internalType": "uint256",
                    "name": "_fromTokenId",
                    "type": "uint256"
                },
                {
                    "indexed": false,
                    "internalType": "uint256",
                    "name": "_toTokenId",
                    "type": "uint256"
                }
            ],
            "name": "BatchMetadataUpdate",
            "type": "event"
        },
        {
            "anonymous": false,
            "inputs": [
                {
                    "indexed": false,
                    "internalType": "uint256",
                    "name": "tokenId",
                    "type": "uint256"
                },
                {
                    "indexed": false,
                    "internalType": "address",
                    "name": "sender",
                    "type": "address"
                }
            ],
            "name": "BurnedNFT",
            "type": "event"
        },
        {
            "anonymous": false,
            "inputs": [
                {
                    "indexed": false,
                    "internalType": "address",
                    "name": "userAddress",
                    "type": "address"
                },
                {
                    "indexed": false,
                    "internalType": "address payable",
                    "name": "relayerAddress",
                    "type": "address"
                },
                {
                    "indexed": false,
                    "internalType": "bytes",
                    "name": "functionSignature",
                    "type": "bytes"
                }
            ],
            "name": "MetaTransactionExecuted",
            "type": "event"
        },
        {
            "anonymous": false,
            "inputs": [
                {
                    "indexed": false,
                    "internalType": "uint256",
                    "name": "_tokenId",
                    "type": "uint256"
                }
            ],
            "name": "MetadataUpdate",
            "type": "event"
        },
        {
            "anonymous": false,
            "inputs": [
                {
                    "indexed": false,
                    "internalType": "address",
                    "name": "toAddress",
                    "type": "address"
                },
                {
                    "indexed": false,
                    "internalType": "uint256",
                    "name": "tokenId",
                    "type": "uint256"
                },
                {
                    "indexed": false,
                    "internalType": "string",
                    "name": "uri",
                    "type": "string"
                },
                {
                    "indexed": false,
                    "internalType": "uint96",
                    "name": "royalteFee",
                    "type": "uint96"
                },
                {
                    "indexed": false,
                    "internalType": "address",
                    "name": "sender",
                    "type": "address"
                }
            ],
            "name": "MintedNFT",
            "type": "event"
        },
        {
            "anonymous": false,
            "inputs": [
                {
                    "indexed": true,
                    "internalType": "address",
                    "name": "previousOwner",
                    "type": "address"
                },
                {
                    "indexed": true,
                    "internalType": "address",
                    "name": "newOwner",
                    "type": "address"
                }
            ],
            "name": "OwnershipTransferred",
            "type": "event"
        },
        {
            "anonymous": false,
            "inputs": [
                {
                    "indexed": false,
                    "internalType": "string",
                    "name": "_value",
                    "type": "string"
                },
                {
                    "indexed": true,
                    "internalType": "uint256",
                    "name": "_id",
                    "type": "uint256"
                }
            ],
            "name": "PermanentURI",
            "type": "event"
        },
        {
            "anonymous": false,
            "inputs": [
                {
                    "indexed": true,
                    "internalType": "address",
                    "name": "from",
                    "type": "address"
                },
                {
                    "indexed": true,
                    "internalType": "address",
                    "name": "to",
                    "type": "address"
                },
                {
                    "indexed": true,
                    "internalType": "uint256",
                    "name": "tokenId",
                    "type": "uint256"
                }
            ],
            "name": "Transfer",
            "type": "event"
        },
        {
            "inputs": [
                {
                    "internalType": "address",
                    "name": "to",
                    "type": "address"
                },
                {
                    "internalType": "uint256",
                    "name": "tokenId",
                    "type": "uint256"
                }
            ],
            "name": "approve",
            "outputs": [],
            "stateMutability": "nonpayable",
            "type": "function"
        },
        {
            "inputs": [
                {
                    "internalType": "address",
                    "name": "owner",
                    "type": "address"
                }
            ],
            "name": "balanceOf",
            "outputs": [
                {
                    "internalType": "uint256",
                    "name": "",
                    "type": "uint256"
                }
            ],
            "stateMutability": "view",
            "type": "function"
        },
        {
            "inputs": [
                {
                    "internalType": "uint256",
                    "name": "tokenId",
                    "type": "uint256"
                }
            ],
            "name": "burn",
            "outputs": [],
            "stateMutability": "nonpayable",
            "type": "function"
        },
        {
            "inputs": [
                {
                    "internalType": "uint256",
                    "name": "tokenId",
                    "type": "uint256"
                }
            ],
            "name": "burnNFT",
            "outputs": [],
            "stateMutability": "nonpayable",
            "type": "function"
        },
        {
            "inputs": [],
            "name": "contractURI",
            "outputs": [
                {
                    "internalType": "string",
                    "name": "",
                    "type": "string"
                }
            ],
            "stateMutability": "view",
            "type": "function"
        },
        {
            "inputs": [
                {
                    "internalType": "address",
                    "name": "userAddress",
                    "type": "address"
                },
                {
                    "internalType": "bytes",
                    "name": "functionSignature",
                    "type": "bytes"
                },
                {
                    "internalType": "bytes32",
                    "name": "sigR",
                    "type": "bytes32"
                },
                {
                    "internalType": "bytes32",
                    "name": "sigS",
                    "type": "bytes32"
                },
                {
                    "internalType": "uint8",
                    "name": "sigV",
                    "type": "uint8"
                }
            ],
            "name": "executeMetaTransaction",
            "outputs": [
                {
                    "internalType": "bytes",
                    "name": "",
                    "type": "bytes"
                }
            ],
            "stateMutability": "payable",
            "type": "function"
        },
        {
            "inputs": [
                {
                    "internalType": "uint256",
                    "name": "tokenId",
                    "type": "uint256"
                }
            ],
            "name": "getApproved",
            "outputs": [
                {
                    "internalType": "address",
                    "name": "",
                    "type": "address"
                }
            ],
            "stateMutability": "view",
            "type": "function"
        },
        {
            "inputs": [
                {
                    "internalType": "address",
                    "name": "_user",
                    "type": "address"
                }
            ],
            "name": "getNonce",
            "outputs": [
                {
                    "internalType": "uint256",
                    "name": "nonce",
                    "type": "uint256"
                }
            ],
            "stateMutability": "view",
            "type": "function"
        },
        {
            "inputs": [
                {
                    "internalType": "address",
                    "name": "owner",
                    "type": "address"
                },
                {
                    "internalType": "address",
                    "name": "operator",
                    "type": "address"
                }
            ],
            "name": "isApprovedForAll",
            "outputs": [
                {
                    "internalType": "bool",
                    "name": "",
                    "type": "bool"
                }
            ],
            "stateMutability": "view",
            "type": "function"
        },
        {
            "inputs": [],
            "name": "name",
            "outputs": [
                {
                    "internalType": "string",
                    "name": "",
                    "type": "string"
                }
            ],
            "stateMutability": "view",
            "type": "function"
        },
        {
            "inputs": [],
            "name": "owner",
            "outputs": [
                {
                    "internalType": "address",
                    "name": "",
                    "type": "address"
                }
            ],
            "stateMutability": "view",
            "type": "function"
        },
        {
            "inputs": [
                {
                    "internalType": "uint256",
                    "name": "tokenId",
                    "type": "uint256"
                }
            ],
            "name": "ownerOf",
            "outputs": [
                {
                    "internalType": "address",
                    "name": "",
                    "type": "address"
                }
            ],
            "stateMutability": "view",
            "type": "function"
        },
        {
            "inputs": [],
            "name": "renounceOwnership",
            "outputs": [],
            "stateMutability": "nonpayable",
            "type": "function"
        },
        {
            "inputs": [
                {
                    "internalType": "uint256",
                    "name": "_tokenId",
                    "type": "uint256"
                },
                {
                    "internalType": "uint256",
                    "name": "_salePrice",
                    "type": "uint256"
                }
            ],
            "name": "royaltyInfo",
            "outputs": [
                {
                    "internalType": "address",
                    "name": "",
                    "type": "address"
                },
                {
                    "internalType": "uint256",
                    "name": "",
                    "type": "uint256"
                }
            ],
            "stateMutability": "view",
            "type": "function"
        },
        {
            "inputs": [
                {
                    "internalType": "address",
                    "name": "to",
                    "type": "address"
                },
                {
                    "internalType": "string",
                    "name": "uri",
                    "type": "string"
                },
                {
                    "internalType": "uint96",
                    "name": "royaltyFee",
                    "type": "uint96"
                },
                {
                    "internalType": "uint256",
                    "name": "amount",
                    "type": "uint256"
                }
            ],
            "name": "safeMint",
            "outputs": [],
            "stateMutability": "nonpayable",
            "type": "function"
        },
        {
            "inputs": [
                {
                    "internalType": "address",
                    "name": "from",
                    "type": "address"
                },
                {
                    "internalType": "address",
                    "name": "to",
                    "type": "address"
                },
                {
                    "internalType": "uint256",
                    "name": "tokenId",
                    "type": "uint256"
                }
            ],
            "name": "safeTransferFrom",
            "outputs": [],
            "stateMutability": "nonpayable",
            "type": "function"
        },
        {
            "inputs": [
                {
                    "internalType": "address",
                    "name": "from",
                    "type": "address"
                },
                {
                    "internalType": "address",
                    "name": "to",
                    "type": "address"
                },
                {
                    "internalType": "uint256",
                    "name": "tokenId",
                    "type": "uint256"
                },
                {
                    "internalType": "bytes",
                    "name": "data",
                    "type": "bytes"
                }
            ],
            "name": "safeTransferFrom",
            "outputs": [],
            "stateMutability": "nonpayable",
            "type": "function"
        },
        {
            "inputs": [
                {
                    "internalType": "address",
                    "name": "operator",
                    "type": "address"
                },
                {
                    "internalType": "bool",
                    "name": "approved",
                    "type": "bool"
                }
            ],
            "name": "setApprovalForAll",
            "outputs": [],
            "stateMutability": "nonpayable",
            "type": "function"
        },
        {
            "inputs": [
                {
                    "internalType": "bytes4",
                    "name": "interfaceId",
                    "type": "bytes4"
                }
            ],
            "name": "supportsInterface",
            "outputs": [
                {
                    "internalType": "bool",
                    "name": "",
                    "type": "bool"
                }
            ],
            "stateMutability": "view",
            "type": "function"
        },
        {
            "inputs": [],
            "name": "symbol",
            "outputs": [
                {
                    "internalType": "string",
                    "name": "",
                    "type": "string"
                }
            ],
            "stateMutability": "view",
            "type": "function"
        },
        {
            "inputs": [
                {
                    "internalType": "uint256",
                    "name": "tokenId",
                    "type": "uint256"
                }
            ],
            "name": "tokenURI",
            "outputs": [
                {
                    "internalType": "string",
                    "name": "",
                    "type": "string"
                }
            ],
            "stateMutability": "view",
            "type": "function"
        },
        {
            "inputs": [
                {
                    "internalType": "address",
                    "name": "from",
                    "type": "address"
                },
                {
                    "internalType": "address",
                    "name": "to",
                    "type": "address"
                },
                {
                    "internalType": "uint256",
                    "name": "tokenId",
                    "type": "uint256"
                }
            ],
            "name": "transferFrom",
            "outputs": [],
            "stateMutability": "nonpayable",
            "type": "function"
        },
        {
            "inputs": [
                {
                    "internalType": "address",
                    "name": "newOwner",
                    "type": "address"
                }
            ],
            "name": "transferOwnership",
            "outputs": [],
            "stateMutability": "nonpayable",
            "type": "function"
        },
        {
            "inputs": [
                {
                    "internalType": "uint256",
                    "name": "_tokenId",
                    "type": "uint256"
                }
            ],
            "name": "updateMetadata",
            "outputs": [],
            "stateMutability": "nonpayable",
            "type": "function"
        }
    ],
    "bytecode": "0x60806040523480156200001157600080fd5b5060405162002d2538038062002d25833981016040819052620000349162000493565b6040518060400160405280600d81526020016c4447436f6c6c656374696f6e7360981b81525060405180604001604052806004815260200163076312e360e41b815250848481600090816200008a9190620005d5565b506001620000998282620005d5565b505050620000b6620000b06200019e60201b60201c565b620001a2565b60405180608001604052806052815260200162002cd3605291398051906020012082805190602001208280519060200120620000f7620001f460201b60201c565b604080516020810195909552840192909252606083015260808201523060a082015260c00160408051601f198184030181529190528051602090910120600a5550339050620001478183620001f9565b600d80546001600160a01b0319166001600160a01b038316179055600e620001708682620005d5565b50620001938173c70d7678152b9e2e34772b041ff7bfbc992956f86001620002fe565b5050505050620006a1565b3390565b600980546001600160a01b038381166001600160a01b0319831681179093556040519116919082907f8be0079c531659141344cd1fd0a4f28419497f9722a3daafe3b4186f6b6457e090600090a35050565b600190565b6127106001600160601b03821611156200026d5760405162461bcd60e51b815260206004820152602a60248201527f455243323938313a20726f79616c7479206665652077696c6c206578636565646044820152692073616c65507269636560b01b60648201526084015b60405180910390fd5b6001600160a01b038216620002c55760405162461bcd60e51b815260206004820152601960248201527f455243323938313a20696e76616c696420726563656976657200000000000000604482015260640162000264565b604080518082019091526001600160a01b039092168083526001600160601b039091166020909201829052600160a01b90910217600755565b816001600160a01b0316836001600160a01b031603620003615760405162461bcd60e51b815260206004820152601960248201527f4552433732313a20617070726f766520746f2063616c6c657200000000000000604482015260640162000264565b6001600160a01b03838116600081815260056020908152604080832094871680845294825291829020805460ff191686151590811790915591519182527f17307eab39ab6107e8899845ad3d59bd9653f200f220920489ca2b5937696c31910160405180910390a3505050565b634e487b7160e01b600052604160045260246000fd5b600082601f830112620003f657600080fd5b81516001600160401b0380821115620004135762000413620003ce565b604051601f8301601f19908116603f011681019082821181831017156200043e576200043e620003ce565b816040528381526020925086838588010111156200045b57600080fd5b600091505b838210156200047f578582018301518183018401529082019062000460565b600093810190920192909252949350505050565b60008060008060808587031215620004aa57600080fd5b84516001600160401b0380821115620004c257600080fd5b620004d088838901620003e4565b95506020870151915080821115620004e757600080fd5b620004f588838901620003e4565b945060408701519150808211156200050c57600080fd5b506200051b87828801620003e4565b606087015190935090506001600160601b03811681146200053b57600080fd5b939692955090935050565b600181811c908216806200055b57607f821691505b6020821081036200057c57634e487b7160e01b600052602260045260246000fd5b50919050565b601f821115620005d057600081815260208120601f850160051c81016020861015620005ab5750805b601f850160051c820191505b81811015620005cc57828155600101620005b7565b5050505b505050565b81516001600160401b03811115620005f157620005f1620003ce565b620006098162000602845462000546565b8462000582565b602080601f831160018114620006415760008415620006285750858301515b600019600386901b1c1916600185901b178555620005cc565b600085815260208120601f198616915b82811015620006725788860151825594840194600190910190840162000651565b5085821015620006915787850151600019600388901b60f8161c191681555b5050505050600190811b01905550565b61262280620006b16000396000f3fe60806040526004361061014b5760003560e01c80636352211e116100b6578063a22cb4651161006f578063a22cb465146103df578063b88d4fde146103ff578063c87b56dd1461041f578063e8a3d4851461043f578063e985e9c514610454578063f2fde38b1461047457600080fd5b80636352211e1461033757806370a0823114610357578063715018a6146103775780638da5cb5b1461038c57806395d89b41146103aa5780639c09628d146103bf57600080fd5b806323b872dd1161010857806323b872dd146102345780632890e0d7146102545780632a55205a146102745780632d0335ab146102b357806342842e0e146102f757806342966c681461031757600080fd5b806301ffc9a71461015057806306fdde0314610185578063081812fc146101a7578063095ea7b3146101df5780630c53c51c1461020157806322aa46f514610214575b600080fd5b34801561015c57600080fd5b5061017061016b366004611dae565b610494565b60405190151581526020015b60405180910390f35b34801561019157600080fd5b5061019a6104a5565b60405161017c9190611e1b565b3480156101b357600080fd5b506101c76101c2366004611e2e565b610537565b6040516001600160a01b03909116815260200161017c565b3480156101eb57600080fd5b506101ff6101fa366004611e63565b61055e565b005b61019a61020f366004611f39565b610678565b34801561022057600080fd5b506101ff61022f366004611fb5565b61085a565b34801561024057600080fd5b506101ff61024f36600461203d565b6109e0565b34801561026057600080fd5b506101ff61026f366004611e2e565b610a12565b34801561028057600080fd5b5061029461028f366004612079565b610aa2565b604080516001600160a01b03909316835260208301919091520161017c565b3480156102bf57600080fd5b506102e96102ce36600461209b565b6001600160a01b03166000908152600b602052604090205490565b60405190815260200161017c565b34801561030357600080fd5b506101ff61031236600461203d565b610b4e565b34801561032357600080fd5b506101ff610332366004611e2e565b610b69565b34801561034357600080fd5b506101c7610352366004611e2e565b610b9a565b34801561036357600080fd5b506102e961037236600461209b565b610bfa565b34801561038357600080fd5b506101ff610c80565b34801561039857600080fd5b506009546001600160a01b03166101c7565b3480156103b657600080fd5b5061019a610c94565b3480156103cb57600080fd5b506101ff6103da366004611e2e565b610ca3565b3480156103eb57600080fd5b506101ff6103fa3660046120b6565b610cda565b34801561040b57600080fd5b506101ff61041a3660046120f2565b610ce5565b34801561042b57600080fd5b5061019a61043a366004611e2e565b610d1d565b34801561044b57600080fd5b5061019a610d28565b34801561046057600080fd5b5061017061046f36600461215a565b610d37565b34801561048057600080fd5b506101ff61048f36600461209b565b610d65565b600061049f82610ddb565b92915050565b6060600080546104b49061218d565b80601f01602080910402602001604051908101604052809291908181526020018280546104e09061218d565b801561052d5780601f106105025761010080835404028352916020019161052d565b820191906000526020600020905b81548152906001019060200180831161051057829003601f168201915b5050505050905090565b600061054282610e00565b506000908152600460205260409020546001600160a01b031690565b600061056982610b9a565b9050806001600160a01b0316836001600160a01b0316036105db5760405162461bcd60e51b815260206004820152602160248201527f4552433732313a20617070726f76616c20746f2063757272656e74206f776e656044820152603960f91b60648201526084015b60405180910390fd5b336001600160a01b03821614806105f757506105f78133610d37565b6106695760405162461bcd60e51b815260206004820152603d60248201527f4552433732313a20617070726f76652063616c6c6572206973206e6f7420746f60448201527f6b656e206f776e6572206f7220617070726f76656420666f7220616c6c00000060648201526084016105d2565b6106738383610e5f565b505050565b60408051606081810183526001600160a01b0388166000818152600b6020908152908590205484528301529181018690526106b68782878787610ecd565b61070c5760405162461bcd60e51b815260206004820152602160248201527f5369676e657220616e64207369676e617475726520646f206e6f74206d6174636044820152600d60fb1b60648201526084016105d2565b6001600160a01b0387166000908152600b60205260409020546107309060016121dd565b6001600160a01b0388166000908152600b60209081526040808320939093559151909182913091610765918b918d91016121f0565b60408051601f198184030181529082905261077f91612227565b6000604051808303816000865af19150503d80600081146107bc576040519150601f19603f3d011682016040523d82523d6000602084013e6107c1565b606091505b5091509150816108135760405162461bcd60e51b815260206004820152601c60248201527f46756e6374696f6e2063616c6c206e6f74207375636365737366756c0000000060448201526064016105d2565b7f5845892132946850460bff5a0083f71031bc5bf9aadcd40f1de79423eac9b10b89338a60405161084693929190612243565b60405180910390a198975050505050505050565b610862610fa9565b3360328211156108e45760405162461bcd60e51b815260206004820152604160248201527f416d6f756e742065786365656473206d6178696d756d2c20706c65617365207360448201527f6570617261746520696e746f20736d616c6c6572207472616e73616374696f6e6064820152607360f81b608482015260a4016105d2565b612710836001600160601b031611156109385760405162461bcd60e51b8152602060048201526016602482015275526f79616c74792065786365656473206d617869756d60501b60448201526064016105d2565b6000805b838160ff1610156109d757600c54915061095a600c80546001019055565b6109648783611003565b61096e828761101d565b600d546109869083906001600160a01b0316876110b0565b7f4aa4312c9af0ac52b2debf8bd85c0a26263b2ad212c03338b17fab4deffb604187838888876040516109bd959493929190612278565b60405180910390a1806109cf816122c3565b91505061093c565b50505050505050565b6109eb335b826111be565b610a075760405162461bcd60e51b81526004016105d2906122e2565b61067383838361121d565b610a1a610fa9565b6000610a2582610b9a565b90506001600160a01b0381163314610a955760405162461bcd60e51b815260206004820152602d60248201527f4f6e6c7920746865206f776e6572206f66204e46542063616e207472616e736660448201526c195c881bdc88189d5c9b881a5d609a1b60648201526084016105d2565b610a9e8261138e565b5050565b60008281526008602090815260408083208151808301909252546001600160a01b038116808352600160a01b9091046001600160601b0316928201929092528291610b175750604080518082019091526007546001600160a01b0381168252600160a01b90046001600160601b031660208201525b602081015160009061271090610b36906001600160601b03168761232f565b610b409190612346565b915196919550909350505050565b61067383838360405180602001604052806000815250610ce5565b610b72336109e5565b610b8e5760405162461bcd60e51b81526004016105d2906122e2565b610b978161138e565b50565b6000818152600260205260408120546001600160a01b03168061049f5760405162461bcd60e51b8152602060048201526018602482015277115490cdcc8c4e881a5b9d985b1a59081d1bdad95b88125160421b60448201526064016105d2565b60006001600160a01b038216610c645760405162461bcd60e51b815260206004820152602960248201527f4552433732313a2061646472657373207a65726f206973206e6f7420612076616044820152683634b21037bbb732b960b91b60648201526084016105d2565b506001600160a01b031660009081526003602052604090205490565b610c88610fa9565b610c9260006113db565b565b6060600180546104b49061218d565b6040518181527ff8e1a15aba9398e019f0b49df1a4fde98ee17ae345cb5f6b5e2c27f5033e8ce7906020015b60405180910390a150565b610a9e33838361142d565b610cef33836111be565b610d0b5760405162461bcd60e51b81526004016105d2906122e2565b610d17848484846114fb565b50505050565b606061049f8261152e565b6060600e80546104b49061218d565b6001600160a01b03918216600090815260056020908152604080832093909416825291909152205460ff1690565b610d6d610fa9565b6001600160a01b038116610dd25760405162461bcd60e51b815260206004820152602660248201527f4f776e61626c653a206e6577206f776e657220697320746865207a65726f206160448201526564647265737360d01b60648201526084016105d2565b610b97816113db565b60006001600160e01b0319821663152a902d60e11b148061049f575061049f82611636565b6000818152600260205260409020546001600160a01b0316610b975760405162461bcd60e51b8152602060048201526018602482015277115490cdcc8c4e881a5b9d985b1a59081d1bdad95b88125160421b60448201526064016105d2565b600081815260046020526040902080546001600160a01b0319166001600160a01b0384169081179091558190610e9482610b9a565b6001600160a01b03167f8c5be1e5ebec7d5bd14f71427d1e84f3dd0314c0f7b2291e5b200ac8c7c3b92560405160405180910390a45050565b6000806001610ee3610ede88611686565b611703565b6040805160008152602081018083529290925260ff861690820152606081018790526080810186905260a0016020604051602081039080840390855afa158015610f31573d6000803e3d6000fd5b5050604051601f1901519150506001600160a01b038116610f885760405162461bcd60e51b8152602060048201526011602482015270496e76616c6964207369676e617475726560781b60448201526064016105d2565b866001600160a01b0316816001600160a01b03161491505095945050505050565b6009546001600160a01b03163314610c925760405162461bcd60e51b815260206004820181905260248201527f4f776e61626c653a2063616c6c6572206973206e6f7420746865206f776e657260448201526064016105d2565b610a9e828260405180602001604052806000815250611733565b6000828152600260205260409020546001600160a01b03166110985760405162461bcd60e51b815260206004820152602e60248201527f45524337323155524953746f726167653a2055524920736574206f66206e6f6e60448201526d32bc34b9ba32b73a103a37b5b2b760911b60648201526084016105d2565b600082815260066020526040902061067382826123b6565b6127106001600160601b038216111561111e5760405162461bcd60e51b815260206004820152602a60248201527f455243323938313a20726f79616c7479206665652077696c6c206578636565646044820152692073616c65507269636560b01b60648201526084016105d2565b6001600160a01b0382166111745760405162461bcd60e51b815260206004820152601b60248201527f455243323938313a20496e76616c696420706172616d6574657273000000000060448201526064016105d2565b6040805180820182526001600160a01b0393841681526001600160601b0392831660208083019182526000968752600890529190942093519051909116600160a01b029116179055565b6000806111ca83610b9a565b9050806001600160a01b0316846001600160a01b031614806111f157506111f18185610d37565b806112155750836001600160a01b031661120a84610537565b6001600160a01b0316145b949350505050565b826001600160a01b031661123082610b9a565b6001600160a01b0316146112565760405162461bcd60e51b81526004016105d290612476565b6001600160a01b0382166112b85760405162461bcd60e51b8152602060048201526024808201527f4552433732313a207472616e7366657220746f20746865207a65726f206164646044820152637265737360e01b60648201526084016105d2565b6112c58383836001611766565b826001600160a01b03166112d882610b9a565b6001600160a01b0316146112fe5760405162461bcd60e51b81526004016105d290612476565b600081815260046020908152604080832080546001600160a01b03199081169091556001600160a01b0387811680865260038552838620805460001901905590871680865283862080546001019055868652600290945282852080549092168417909155905184937fddf252ad1be2c89b69c2b068fc378daa952ba7f163c4a11628f55a4df523b3ef91a4505050565b611397816117ee565b600081815260086020526040812055604080518281523360208201527fbf5286bc703ea6445af2b1f101d31eba4406ccee26449d42527d3a680b516de09101610ccf565b600980546001600160a01b038381166001600160a01b0319831681179093556040519116919082907f8be0079c531659141344cd1fd0a4f28419497f9722a3daafe3b4186f6b6457e090600090a35050565b816001600160a01b0316836001600160a01b03160361148e5760405162461bcd60e51b815260206004820152601960248201527f4552433732313a20617070726f766520746f2063616c6c65720000000000000060448201526064016105d2565b6001600160a01b03838116600081815260056020908152604080832094871680845294825291829020805460ff191686151590811790915591519182527f17307eab39ab6107e8899845ad3d59bd9653f200f220920489ca2b5937696c31910160405180910390a3505050565b61150684848461121d565b6115128484848461182e565b610d175760405162461bcd60e51b81526004016105d2906124bb565b606061153982610e00565b600082815260066020526040812080546115529061218d565b80601f016020809104026020016040519081016040528092919081815260200182805461157e9061218d565b80156115cb5780601f106115a0576101008083540402835291602001916115cb565b820191906000526020600020905b8154815290600101906020018083116115ae57829003601f168201915b5050505050905060006115e960408051602081019091526000815290565b905080516000036115fb575092915050565b81511561162d57808260405160200161161592919061250d565b60405160208183030381529060405292505050919050565b6112158461192f565b60006001600160e01b031982166380ac58cd60e01b148061166757506001600160e01b03198216635b5e139f60e01b145b8061049f57506301ffc9a760e01b6001600160e01b031983161461049f565b60006040518060800160405280604381526020016125aa60439139805160209182012083518483015160408087015180519086012090516116e6950193845260208401929092526001600160a01b03166040830152606082015260800190565b604051602081830303815290604052805190602001209050919050565b600061170e600a5490565b60405161190160f01b60208201526022810191909152604281018390526062016116e6565b61173d83836119a3565b61174a600084848461182e565b6106735760405162461bcd60e51b81526004016105d2906124bb565b6001811115610d17576001600160a01b038416156117ac576001600160a01b038416600090815260036020526040812080548392906117a690849061253c565b90915550505b6001600160a01b03831615610d17576001600160a01b038316600090815260036020526040812080548392906117e39084906121dd565b909155505050505050565b6117f781611b3c565b600081815260066020526040902080546118109061218d565b159050610b97576000818152600660205260408120610b9791611d4a565b60006001600160a01b0384163b1561192457604051630a85bd0160e11b81526001600160a01b0385169063150b7a029061187290339089908890889060040161254f565b6020604051808303816000875af19250505080156118ad575060408051601f3d908101601f191682019092526118aa9181019061258c565b60015b61190a573d8080156118db576040519150601f19603f3d011682016040523d82523d6000602084013e6118e0565b606091505b5080516000036119025760405162461bcd60e51b81526004016105d2906124bb565b805181602001fd5b6001600160e01b031916630a85bd0160e11b149050611215565b506001949350505050565b606061193a82610e00565b600061195160408051602081019091526000815290565b90506000815111611971576040518060200160405280600081525061199c565b8061197b84611bdf565b60405160200161198c92919061250d565b6040516020818303038152906040525b9392505050565b6001600160a01b0382166119f95760405162461bcd60e51b815260206004820181905260248201527f4552433732313a206d696e7420746f20746865207a65726f206164647265737360448201526064016105d2565b6000818152600260205260409020546001600160a01b031615611a5e5760405162461bcd60e51b815260206004820152601c60248201527f4552433732313a20746f6b656e20616c7265616479206d696e7465640000000060448201526064016105d2565b611a6c600083836001611766565b6000818152600260205260409020546001600160a01b031615611ad15760405162461bcd60e51b815260206004820152601c60248201527f4552433732313a20746f6b656e20616c7265616479206d696e7465640000000060448201526064016105d2565b6001600160a01b038216600081815260036020908152604080832080546001019055848352600290915280822080546001600160a01b0319168417905551839291907fddf252ad1be2c89b69c2b068fc378daa952ba7f163c4a11628f55a4df523b3ef908290a45050565b6000611b4782610b9a565b9050611b57816000846001611766565b611b6082610b9a565b600083815260046020908152604080832080546001600160a01b03199081169091556001600160a01b0385168085526003845282852080546000190190558785526002909352818420805490911690555192935084927fddf252ad1be2c89b69c2b068fc378daa952ba7f163c4a11628f55a4df523b3ef908390a45050565b60606000611bec83611c72565b600101905060008167ffffffffffffffff811115611c0c57611c0c611e8d565b6040519080825280601f01601f191660200182016040528015611c36576020820181803683370190505b5090508181016020015b600019016f181899199a1a9b1b9c1cb0b131b232b360811b600a86061a8153600a8504945084611c4057509392505050565b60008072184f03e93ff9f4daa797ed6e38ed64bf6a1f0160401b8310611cb15772184f03e93ff9f4daa797ed6e38ed64bf6a1f0160401b830492506040015b6d04ee2d6d415b85acef81000000008310611cdd576d04ee2d6d415b85acef8100000000830492506020015b662386f26fc100008310611cfb57662386f26fc10000830492506010015b6305f5e1008310611d13576305f5e100830492506008015b6127108310611d2757612710830492506004015b60648310611d39576064830492506002015b600a831061049f5760010192915050565b508054611d569061218d565b6000825580601f10611d66575050565b601f016020900490600052602060002090810190610b9791905b80821115611d945760008155600101611d80565b5090565b6001600160e01b031981168114610b9757600080fd5b600060208284031215611dc057600080fd5b813561199c81611d98565b60005b83811015611de6578181015183820152602001611dce565b50506000910152565b60008151808452611e07816020860160208601611dcb565b601f01601f19169290920160200192915050565b60208152600061199c6020830184611def565b600060208284031215611e4057600080fd5b5035919050565b80356001600160a01b0381168114611e5e57600080fd5b919050565b60008060408385031215611e7657600080fd5b611e7f83611e47565b946020939093013593505050565b634e487b7160e01b600052604160045260246000fd5b600067ffffffffffffffff80841115611ebe57611ebe611e8d565b604051601f8501601f19908116603f01168101908282118183101715611ee657611ee6611e8d565b81604052809350858152868686011115611eff57600080fd5b858560208301376000602087830101525050509392505050565b600082601f830112611f2a57600080fd5b61199c83833560208501611ea3565b600080600080600060a08688031215611f5157600080fd5b611f5a86611e47565b9450602086013567ffffffffffffffff811115611f7657600080fd5b611f8288828901611f19565b9450506040860135925060608601359150608086013560ff81168114611fa757600080fd5b809150509295509295909350565b60008060008060808587031215611fcb57600080fd5b611fd485611e47565b9350602085013567ffffffffffffffff811115611ff057600080fd5b8501601f8101871361200157600080fd5b61201087823560208401611ea3565b93505060408501356001600160601b038116811461202d57600080fd5b9396929550929360600135925050565b60008060006060848603121561205257600080fd5b61205b84611e47565b925061206960208501611e47565b9150604084013590509250925092565b6000806040838503121561208c57600080fd5b50508035926020909101359150565b6000602082840312156120ad57600080fd5b61199c82611e47565b600080604083850312156120c957600080fd5b6120d283611e47565b9150602083013580151581146120e757600080fd5b809150509250929050565b6000806000806080858703121561210857600080fd5b61211185611e47565b935061211f60208601611e47565b925060408501359150606085013567ffffffffffffffff81111561214257600080fd5b61214e87828801611f19565b91505092959194509250565b6000806040838503121561216d57600080fd5b61217683611e47565b915061218460208401611e47565b90509250929050565b600181811c908216806121a157607f821691505b6020821081036121c157634e487b7160e01b600052602260045260246000fd5b50919050565b634e487b7160e01b600052601160045260246000fd5b8082018082111561049f5761049f6121c7565b60008351612202818460208801611dcb565b60609390931b6bffffffffffffffffffffffff19169190920190815260140192915050565b60008251612239818460208701611dcb565b9190910192915050565b6001600160a01b0384811682528316602082015260606040820181905260009061226f90830184611def565b95945050505050565b600060018060a01b03808816835286602084015260a060408401526122a060a0840187611def565b6001600160601b0395909516606084015292909216608090910152509392505050565b600060ff821660ff81036122d9576122d96121c7565b60010192915050565b6020808252602d908201527f4552433732313a2063616c6c6572206973206e6f7420746f6b656e206f776e6560408201526c1c881bdc88185c1c1c9bdd9959609a1b606082015260800190565b808202811582820484141761049f5761049f6121c7565b60008261236357634e487b7160e01b600052601260045260246000fd5b500490565b601f82111561067357600081815260208120601f850160051c8101602086101561238f5750805b601f850160051c820191505b818110156123ae5782815560010161239b565b505050505050565b815167ffffffffffffffff8111156123d0576123d0611e8d565b6123e4816123de845461218d565b84612368565b602080601f83116001811461241957600084156124015750858301515b600019600386901b1c1916600185901b1785556123ae565b600085815260208120601f198616915b8281101561244857888601518255948401946001909101908401612429565b50858210156124665787850151600019600388901b60f8161c191681555b5050505050600190811b01905550565b60208082526025908201527f4552433732313a207472616e736665722066726f6d20696e636f72726563742060408201526437bbb732b960d91b606082015260800190565b60208082526032908201527f4552433732313a207472616e7366657220746f206e6f6e20455243373231526560408201527131b2b4bb32b91034b6b83632b6b2b73a32b960711b606082015260800190565b6000835161251f818460208801611dcb565b835190830190612533818360208801611dcb565b01949350505050565b8181038181111561049f5761049f6121c7565b6001600160a01b038581168252841660208201526040810183905260806060820181905260009061258290830184611def565b9695505050505050565b60006020828403121561259e57600080fd5b815161199c81611d9856fe4d6574615472616e73616374696f6e2875696e74323536206e6f6e63652c616464726573732066726f6d2c62797465732066756e6374696f6e5369676e617475726529a26469706673582212206fdc82a1ed37d8b518a2c6706e41395ba5c85401d0cd3f78b0950329e5eb14f364736f6c63430008110033454950373132446f6d61696e28737472696e67206e616d652c737472696e672076657273696f6e2c75696e7432353620636861696e49642c6164647265737320766572696679696e67436f6e747261637429",
    "linkReferences": {},
    "deployedLinkReferences": {}
}